{
  "_format": "hh-sol-artifact-1",
  "contractName": "BookNFT",
  "sourceName": "contracts/Libchain.sol",
  "abi": [
    {
      "inputs": [],
      "stateMutability": "nonpayable",
      "type": "constructor"
    },
    {
      "inputs": [
        {
          "internalType": "uint256",
          "name": "",
          "type": "uint256"
        }
      ],
      "name": "books",
      "outputs": [
        {
          "internalType": "string",
          "name": "name",
          "type": "string"
        },
        {
          "internalType": "string",
          "name": "author",
          "type": "string"
        },
        {
          "internalType": "uint256",
          "name": "tokenId",
          "type": "uint256"
        },
        {
          "internalType": "bool",
          "name": "isAvailable",
          "type": "bool"
        },
        {
          "internalType": "address",
          "name": "renter",
          "type": "address"
        },
        {
          "internalType": "address",
          "name": "owner",
          "type": "address"
        }
      ],
      "stateMutability": "view",
      "type": "function"
    },
    {
      "inputs": [
        {
          "internalType": "string",
          "name": "_name",
          "type": "string"
        },
        {
          "internalType": "string",
          "name": "_author",
          "type": "string"
        },
        {
          "internalType": "uint256",
          "name": "_tokenId",
          "type": "uint256"
        }
      ],
      "name": "createNFT",
      "outputs": [],
      "stateMutability": "nonpayable",
      "type": "function"
    },
    {
      "inputs": [
        {
          "internalType": "uint256",
          "name": "_tokenId",
          "type": "uint256"
        }
      ],
      "name": "getBookDetails",
      "outputs": [
        {
          "internalType": "string",
          "name": "",
          "type": "string"
        },
        {
          "internalType": "string",
          "name": "",
          "type": "string"
        },
        {
          "internalType": "bool",
          "name": "",
          "type": "bool"
        },
        {
          "internalType": "address",
          "name": "",
          "type": "address"
        },
        {
          "internalType": "address",
          "name": "",
          "type": "address"
        }
      ],
      "stateMutability": "view",
      "type": "function"
    },
    {
      "inputs": [],
      "name": "getBookList",
      "outputs": [
        {
          "components": [
            {
              "internalType": "string",
              "name": "name",
              "type": "string"
            },
            {
              "internalType": "string",
              "name": "author",
              "type": "string"
            },
            {
              "internalType": "uint256",
              "name": "tokenId",
              "type": "uint256"
            },
            {
              "internalType": "bool",
              "name": "isAvailable",
              "type": "bool"
            },
            {
              "internalType": "address",
              "name": "renter",
              "type": "address"
            },
            {
              "internalType": "address",
              "name": "owner",
              "type": "address"
            }
          ],
          "internalType": "struct BookNFT.Book[]",
          "name": "",
          "type": "tuple[]"
        }
      ],
      "stateMutability": "view",
      "type": "function"
    },
    {
      "inputs": [],
      "name": "owner",
      "outputs": [
        {
          "internalType": "address",
          "name": "",
          "type": "address"
        }
      ],
      "stateMutability": "view",
      "type": "function"
    },
    {
      "inputs": [
        {
          "internalType": "uint256",
          "name": "_tokenId",
          "type": "uint256"
        },
        {
          "internalType": "address",
          "name": "_issuer",
          "type": "address"
        }
      ],
      "name": "rentNFT",
      "outputs": [],
      "stateMutability": "nonpayable",
      "type": "function"
    },
    {
      "inputs": [
        {
          "internalType": "uint256",
          "name": "_tokenId",
          "type": "uint256"
        }
      ],
      "name": "returnNFT",
      "outputs": [],
      "stateMutability": "nonpayable",
      "type": "function"
    },
    {
      "inputs": [
        {
          "internalType": "address",
          "name": "_to",
          "type": "address"
        },
        {
          "internalType": "uint256",
          "name": "_tokenId",
          "type": "uint256"
        }
      ],
      "name": "transferNFT",
      "outputs": [],
      "stateMutability": "nonpayable",
      "type": "function"
    }
  ],
  "bytecode": "0x608060405234801561001057600080fd5b5033600260006101000a81548173ffffffffffffffffffffffffffffffffffffffff021916908373ffffffffffffffffffffffffffffffffffffffff160217905550611b66806100616000396000f3fe608060405234801561001057600080fd5b50600436106100885760003560e01c80638da5cb5b1161005b5780638da5cb5b1461013057806394ab67fe1461014e578063b0cd2aa01461016a578063cf1bd68f1461018657610088565b80630ca634531461008d5780633241d34a146100ab57806368744046146100c757806374ff4818146100fc575b600080fd5b6100956101a2565b6040516100a2919061139e565b60405180910390f35b6100c560048036038101906100c09190611535565b6103f6565b005b6100e160048036038101906100dc91906115c0565b6107b8565b6040516100f396959493929190611664565b60405180910390f35b610116600480360381019061011191906115c0565b610951565b6040516101279594939291906116d3565b60405180910390f35b610138610b95565b6040516101459190611734565b60405180910390f35b6101686004803603810190610163919061177b565b610bbb565b005b610184600480360381019061017f91906115c0565b610d8b565b005b6101a0600480360381019061019b91906117bb565b610ecd565b005b60606001805480602002602001604051908101604052809291908181526020016000905b828210156103ed57838290600052602060002090600502016040518060c00160405290816000820180546101f99061182a565b80601f01602080910402602001604051908101604052809291908181526020018280546102259061182a565b80156102725780601f1061024757610100808354040283529160200191610272565b820191906000526020600020905b81548152906001019060200180831161025557829003601f168201915b5050505050815260200160018201805461028b9061182a565b80601f01602080910402602001604051908101604052809291908181526020018280546102b79061182a565b80156103045780601f106102d957610100808354040283529160200191610304565b820191906000526020600020905b8154815290600101906020018083116102e757829003601f168201915b50505050508152602001600282015481526020016003820160009054906101000a900460ff161515151581526020016003820160019054906101000a900473ffffffffffffffffffffffffffffffffffffffff1673ffffffffffffffffffffffffffffffffffffffff1673ffffffffffffffffffffffffffffffffffffffff1681526020016004820160009054906101000a900473ffffffffffffffffffffffffffffffffffffffff1673ffffffffffffffffffffffffffffffffffffffff1673ffffffffffffffffffffffffffffffffffffffff1681525050815260200190600101906101c6565b50505050905090565b600260009054906101000a900473ffffffffffffffffffffffffffffffffffffffff1673ffffffffffffffffffffffffffffffffffffffff163373ffffffffffffffffffffffffffffffffffffffff1614610486576040517f08c379a000000000000000000000000000000000000000000000000000000000815260040161047d906118ce565b60405180910390fd5b600080600083815260200190815260200160002060020154146104de576040517f08c379a00000000000000000000000000000000000000000000000000000000081526004016104d59061193a565b60405180910390fd5b60016040518060c00160405280858152602001848152602001838152602001600115158152602001600073ffffffffffffffffffffffffffffffffffffffff1681526020013373ffffffffffffffffffffffffffffffffffffffff16815250600080848152602001908152602001600020600082015181600001908051906020019061056b92919061100e565b50602082015181600101908051906020019061058892919061100e565b506040820151816002015560608201518160030160006101000a81548160ff02191690831515021790555060808201518160030160016101000a81548173ffffffffffffffffffffffffffffffffffffffff021916908373ffffffffffffffffffffffffffffffffffffffff16021790555060a08201518160040160006101000a81548173ffffffffffffffffffffffffffffffffffffffff021916908373ffffffffffffffffffffffffffffffffffffffff1602179055509050908060018154018082558091505060019003906000526020600020906005020160009091909190915060008201816000019080546106809061182a565b61068b929190611094565b5060018201816001019080546106a09061182a565b6106ab929190611094565b50600282015481600201556003820160009054906101000a900460ff168160030160006101000a81548160ff0219169083151502179055506003820160019054906101000a900473ffffffffffffffffffffffffffffffffffffffff168160030160016101000a81548173ffffffffffffffffffffffffffffffffffffffff021916908373ffffffffffffffffffffffffffffffffffffffff1602179055506004820160009054906101000a900473ffffffffffffffffffffffffffffffffffffffff168160040160006101000a81548173ffffffffffffffffffffffffffffffffffffffff021916908373ffffffffffffffffffffffffffffffffffffffff1602179055505050505050565b60006020528060005260406000206000915090508060000180546107db9061182a565b80601f01602080910402602001604051908101604052809291908181526020018280546108079061182a565b80156108545780601f1061082957610100808354040283529160200191610854565b820191906000526020600020905b81548152906001019060200180831161083757829003601f168201915b5050505050908060010180546108699061182a565b80601f01602080910402602001604051908101604052809291908181526020018280546108959061182a565b80156108e25780601f106108b7576101008083540402835291602001916108e2565b820191906000526020600020905b8154815290600101906020018083116108c557829003601f168201915b5050505050908060020154908060030160009054906101000a900460ff16908060030160019054906101000a900473ffffffffffffffffffffffffffffffffffffffff16908060040160009054906101000a900473ffffffffffffffffffffffffffffffffffffffff16905086565b6060806000806000806000808881526020019081526020016000206002015414156109b1576040517f08c379a00000000000000000000000000000000000000000000000000000000081526004016109a8906119a6565b60405180910390fd5b60008087815260200190815260200160002060000160008088815260200190815260200160002060010160008089815260200190815260200160002060030160009054906101000a900460ff166000808a815260200190815260200160002060030160019054906101000a900473ffffffffffffffffffffffffffffffffffffffff166000808b815260200190815260200160002060040160009054906101000a900473ffffffffffffffffffffffffffffffffffffffff16848054610a769061182a565b80601f0160208091040260200160405190810160405280929190818152602001828054610aa29061182a565b8015610aef5780601f10610ac457610100808354040283529160200191610aef565b820191906000526020600020905b815481529060010190602001808311610ad257829003601f168201915b50505050509450838054610b029061182a565b80601f0160208091040260200160405190810160405280929190818152602001828054610b2e9061182a565b8015610b7b5780601f10610b5057610100808354040283529160200191610b7b565b820191906000526020600020905b815481529060010190602001808311610b5e57829003601f168201915b505050505093509450945094509450945091939590929450565b600260009054906101000a900473ffffffffffffffffffffffffffffffffffffffff1681565b6000806000838152602001908152602001600020600201541415610c14576040517f08c379a0000000000000000000000000000000000000000000000000000000008152600401610c0b906119a6565b60405180910390fd5b60008082815260200190815260200160002060030160019054906101000a900473ffffffffffffffffffffffffffffffffffffffff1673ffffffffffffffffffffffffffffffffffffffff163373ffffffffffffffffffffffffffffffffffffffff1614610cb7576040517f08c379a0000000000000000000000000000000000000000000000000000000008152600401610cae90611a38565b60405180910390fd5b60008082815260200190815260200160002060030160009054906101000a900460ff16610d33578160008083815260200190815260200160002060030160016101000a81548173ffffffffffffffffffffffffffffffffffffffff021916908373ffffffffffffffffffffffffffffffffffffffff1602179055505b8160008083815260200190815260200160002060030160016101000a81548173ffffffffffffffffffffffffffffffffffffffff021916908373ffffffffffffffffffffffffffffffffffffffff1602179055505050565b6000806000838152602001908152602001600020600201541415610de4576040517f08c379a0000000000000000000000000000000000000000000000000000000008152600401610ddb906119a6565b60405180910390fd5b60008082815260200190815260200160002060030160009054906101000a900460ff1615610e47576040517f08c379a0000000000000000000000000000000000000000000000000000000008152600401610e3e90611aa4565b60405180910390fd5b600160008083815260200190815260200160002060030160006101000a81548160ff021916908315150217905550600080600083815260200190815260200160002060030160016101000a81548173ffffffffffffffffffffffffffffffffffffffff021916908373ffffffffffffffffffffffffffffffffffffffff16021790555050565b6000806000848152602001908152602001600020600201541415610f26576040517f08c379a0000000000000000000000000000000000000000000000000000000008152600401610f1d906119a6565b60405180910390fd5b60008083815260200190815260200160002060030160009054906101000a900460ff16610f88576040517f08c379a0000000000000000000000000000000000000000000000000000000008152600401610f7f90611b10565b60405180910390fd5b600080600084815260200190815260200160002060030160006101000a81548160ff0219169083151502179055508060008084815260200190815260200160002060030160016101000a81548173ffffffffffffffffffffffffffffffffffffffff021916908373ffffffffffffffffffffffffffffffffffffffff1602179055505050565b82805461101a9061182a565b90600052602060002090601f01602090048101928261103c5760008555611083565b82601f1061105557805160ff1916838001178555611083565b82800160010185558215611083579182015b82811115611082578251825591602001919060010190611067565b5b5090506110909190611121565b5090565b8280546110a09061182a565b90600052602060002090601f0160209004810192826110c25760008555611110565b82601f106110d35780548555611110565b8280016001018555821561111057600052602060002091601f016020900482015b8281111561110f5782548255916001019190600101906110f4565b5b50905061111d9190611121565b5090565b5b8082111561113a576000816000905550600101611122565b5090565b600081519050919050565b600082825260208201905092915050565b6000819050602082019050919050565b600081519050919050565b600082825260208201905092915050565b60005b838110156111a4578082015181840152602081019050611189565b838111156111b3576000848401525b50505050565b6000601f19601f8301169050919050565b60006111d58261116a565b6111df8185611175565b93506111ef818560208601611186565b6111f8816111b9565b840191505092915050565b6000819050919050565b61121681611203565b82525050565b60008115159050919050565b6112318161121c565b82525050565b600073ffffffffffffffffffffffffffffffffffffffff82169050919050565b600061126282611237565b9050919050565b61127281611257565b82525050565b600060c083016000830151848203600086015261129582826111ca565b915050602083015184820360208601526112af82826111ca565b91505060408301516112c4604086018261120d565b5060608301516112d76060860182611228565b5060808301516112ea6080860182611269565b5060a08301516112fd60a0860182611269565b508091505092915050565b60006113148383611278565b905092915050565b6000602082019050919050565b60006113348261113e565b61133e8185611149565b9350836020820285016113508561115a565b8060005b8581101561138c578484038952815161136d8582611308565b94506113788361131c565b925060208a01995050600181019050611354565b50829750879550505050505092915050565b600060208201905081810360008301526113b88184611329565b905092915050565b6000604051905090565b600080fd5b600080fd5b600080fd5b600080fd5b7f4e487b7100000000000000000000000000000000000000000000000000000000600052604160045260246000fd5b611416826111b9565b810181811067ffffffffffffffff82111715611435576114346113de565b5b80604052505050565b60006114486113c0565b9050611454828261140d565b919050565b600067ffffffffffffffff821115611474576114736113de565b5b61147d826111b9565b9050602081019050919050565b82818337600083830152505050565b60006114ac6114a784611459565b61143e565b9050828152602081018484840111156114c8576114c76113d9565b5b6114d384828561148a565b509392505050565b600082601f8301126114f0576114ef6113d4565b5b8135611500848260208601611499565b91505092915050565b61151281611203565b811461151d57600080fd5b50565b60008135905061152f81611509565b92915050565b60008060006060848603121561154e5761154d6113ca565b5b600084013567ffffffffffffffff81111561156c5761156b6113cf565b5b611578868287016114db565b935050602084013567ffffffffffffffff811115611599576115986113cf565b5b6115a5868287016114db565b92505060406115b686828701611520565b9150509250925092565b6000602082840312156115d6576115d56113ca565b5b60006115e484828501611520565b91505092915050565b600082825260208201905092915050565b60006116098261116a565b61161381856115ed565b9350611623818560208601611186565b61162c816111b9565b840191505092915050565b61164081611203565b82525050565b61164f8161121c565b82525050565b61165e81611257565b82525050565b600060c082019050818103600083015261167e81896115fe565b9050818103602083015261169281886115fe565b90506116a16040830187611637565b6116ae6060830186611646565b6116bb6080830185611655565b6116c860a0830184611655565b979650505050505050565b600060a08201905081810360008301526116ed81886115fe565b9050818103602083015261170181876115fe565b90506117106040830186611646565b61171d6060830185611655565b61172a6080830184611655565b9695505050505050565b60006020820190506117496000830184611655565b92915050565b61175881611257565b811461176357600080fd5b50565b6000813590506117758161174f565b92915050565b60008060408385031215611792576117916113ca565b5b60006117a085828601611766565b92505060206117b185828601611520565b9150509250929050565b600080604083850312156117d2576117d16113ca565b5b60006117e085828601611520565b92505060206117f185828601611766565b9150509250929050565b7f4e487b7100000000000000000000000000000000000000000000000000000000600052602260045260246000fd5b6000600282049050600182168061184257607f821691505b60208210811415611856576118556117fb565b5b50919050565b7f4f6e6c792074686520636f6e7472616374206f776e65722063616e206372656160008201527f7465204e46547300000000000000000000000000000000000000000000000000602082015250565b60006118b86027836115ed565b91506118c38261185c565b604082019050919050565b600060208201905081810360008301526118e7816118ab565b9050919050565b7f546f6b656e20494420616c726561647920657869737473000000000000000000600082015250565b60006119246017836115ed565b915061192f826118ee565b602082019050919050565b6000602082019050818103600083015261195381611917565b9050919050565b7f496e76616c696420746f6b656e20494400000000000000000000000000000000600082015250565b60006119906010836115ed565b915061199b8261195a565b602082019050919050565b600060208201905081810360008301526119bf81611983565b9050919050565b7f4f6e6c79207468652072656e7465722063616e207472616e736665722074686560008201527f20626f6f6b000000000000000000000000000000000000000000000000000000602082015250565b6000611a226025836115ed565b9150611a2d826119c6565b604082019050919050565b60006020820190508181036000830152611a5181611a15565b9050919050565b7f426f6f6b20697320616c726561647920617661696c61626c6500000000000000600082015250565b6000611a8e6019836115ed565b9150611a9982611a58565b602082019050919050565b60006020820190508181036000830152611abd81611a81565b9050919050565b7f426f6f6b206973206e6f7420617661696c61626c6520666f722072656e740000600082015250565b6000611afa601e836115ed565b9150611b0582611ac4565b602082019050919050565b60006020820190508181036000830152611b2981611aed565b905091905056fea2646970667358221220e272c2e29ef18b046c0654fbe980e9ed6033c5b52da6837b9d2786089a7910a464736f6c63430008090033",
  "linkReferences": {},
  "deployedLinkReferences": {}
}